{
  "abi": [
    {
      "inputs": [
        {
          "internalType": "address",
          "name": "supraSC",
          "type": "address"
        }
      ],
      "stateMutability": "nonpayable",
      "type": "constructor"
    },
    {
      "inputs": [],
      "name": "clientWalletAddress",
      "outputs": [
        {
          "internalType": "address",
          "name": "",
          "type": "address"
        }
      ],
      "stateMutability": "view",
      "type": "function"
    },
    {
      "inputs": [
        {
          "internalType": "uint256",
          "name": "request",
          "type": "uint256"
        },
        {
          "internalType": "uint256[]",
          "name": "rngList",
          "type": "uint256[]"
        }
      ],
      "name": "distribute",
      "outputs": [],
      "stateMutability": "nonpayable",
      "type": "function"
    },
    {
      "inputs": [],
      "name": "findJoker",
      "outputs": [],
      "stateMutability": "nonpayable",
      "type": "function"
    },
    {
      "inputs": [],
      "name": "guessCards",
      "outputs": [],
      "stateMutability": "nonpayable",
      "type": "function"
    },
    {
      "inputs": [],
      "name": "joker",
      "outputs": [
        {
          "internalType": "uint256",
          "name": "",
          "type": "uint256"
        }
      ],
      "stateMutability": "view",
      "type": "function"
    },
    {
      "inputs": [],
      "name": "lucky",
      "outputs": [
        {
          "internalType": "uint256",
          "name": "",
          "type": "uint256"
        }
      ],
      "stateMutability": "view",
      "type": "function"
    },
    {
      "inputs": [
        {
          "internalType": "uint256",
          "name": "_requestId",
          "type": "uint256"
        }
      ],
      "name": "requestList",
      "outputs": [
        {
          "internalType": "uint256[]",
          "name": "",
          "type": "uint256[]"
        }
      ],
      "stateMutability": "view",
      "type": "function"
    },
    {
      "inputs": [
        {
          "internalType": "uint256",
          "name": "_requestId",
          "type": "uint256"
        },
        {
          "internalType": "uint256",
          "name": "index",
          "type": "uint256"
        }
      ],
      "name": "requestResult",
      "outputs": [
        {
          "internalType": "uint256",
          "name": "",
          "type": "uint256"
        }
      ],
      "stateMutability": "view",
      "type": "function"
    },
    {
      "inputs": [],
      "name": "teenPatti",
      "outputs": [],
      "stateMutability": "nonpayable",
      "type": "function"
    },
    {
      "inputs": [],
      "name": "teen_patti_1",
      "outputs": [
        {
          "internalType": "uint256",
          "name": "",
          "type": "uint256"
        }
      ],
      "stateMutability": "view",
      "type": "function"
    },
    {
      "inputs": [],
      "name": "teen_patti_2",
      "outputs": [
        {
          "internalType": "uint256",
          "name": "",
          "type": "uint256"
        }
      ],
      "stateMutability": "view",
      "type": "function"
    },
    {
      "inputs": [],
      "name": "teen_patti_3",
      "outputs": [
        {
          "internalType": "uint256",
          "name": "",
          "type": "uint256"
        }
      ],
      "stateMutability": "view",
      "type": "function"
    }
  ],
  "bytecode": {
    "object": "0x608060405234801561001057600080fd5b5060405161073738038061073783398101604081905261002f9161005d565b600080546001600160a01b039092166001600160a01b0319928316179055600780549091163317905561008d565b60006020828403121561006f57600080fd5b81516001600160a01b038116811461008657600080fd5b9392505050565b61069b8061009c6000396000f3fe608060405234801561001057600080fd5b50600436106100b45760003560e01c8063a2c38c9111610071578063a2c38c911461011d578063ca99a53314610130578063cfdcfaaa14610139578063d9c291cf14610141578063e0a84f1a1461014a578063ff782fec1461015d57600080fd5b806301df8502146100b957806302e9d43b146100c357806315cd7069146100ec5780634dd2f3a2146101035780635ba549191461010c5780637789d49914610114575b600080fd5b6100c1610188565b005b6100d66100d1366004610409565b61019b565b6040516100e39190610422565b60405180910390f35b6100f560035481565b6040519081526020016100e3565b6100f560025481565b6100c16101fd565b6100f560045481565b6100f561012b366004610466565b61020d565b6100f560055481565b6100c1610244565b6100f560065481565b6100c161015836600461049e565b610275565b600754610170906001600160a01b031681565b6040516001600160a01b0390911681526020016100e3565b610196600180610100610299565b600655565b6000818152600160209081526040918290208054835181840281018401909452808452606093928301828280156101f157602002820191906000526020600020905b8154815260200190600101908083116101dd575b50505050509050919050565b610208600180610323565b600255565b600082815260016020526040812080548291908490811061023057610230610568565b600091825260209091200154949350505050565b61025060016002610323565b60038190555061026260016003610323565b600455610270600180610323565b600555565b60008281526001602090815260409091208251610294928401906103a9565b505050565b60008054600754604051635bd9921d60e11b815283926001600160a01b039081169263b7b3243a926102d7928a928a928a929091169060040161057e565b6020604051808303816000875af11580156102f6573d6000803e3d6000fd5b505050506040513d601f19601f8201168201806040525081019061031a91906105e9565b95945050505050565b6000805460075460405163d291ba0960e01b815283926001600160a01b039081169263d291ba099261035e9289928992911690600401610602565b6020604051808303816000875af115801561037d573d6000803e3d6000fd5b505050506040513d601f19601f820116820180604052508101906103a191906105e9565b949350505050565b8280548282559060005260206000209081019282156103e4579160200282015b828111156103e45782518255916020019190600101906103c9565b506103f09291506103f4565b5090565b5b808211156103f057600081556001016103f5565b60006020828403121561041b57600080fd5b5035919050565b6020808252825182820181905260009190848201906040850190845b8181101561045a5783518352928401929184019160010161043e565b50909695505050505050565b6000806040838503121561047957600080fd5b50508035926020909101359150565b634e487b7160e01b600052604160045260246000fd5b600080604083850312156104b157600080fd5b8235915060208084013567ffffffffffffffff808211156104d157600080fd5b818601915086601f8301126104e557600080fd5b8135818111156104f7576104f7610488565b8060051b604051601f19603f8301168101818110858211171561051c5761051c610488565b60405291825284820192508381018501918983111561053a57600080fd5b938501935b828510156105585784358452938501939285019261053f565b8096505050505050509250929050565b634e487b7160e01b600052603260045260246000fd5b60a0815260006105bb60a08301601d81527f646973747269627574652875696e743235362c75696e743235365b5d29000000602082015260400190565b60ff96909616602083015250604081019390935260608301919091526001600160a01b031660809091015290565b6000602082840312156105fb57600080fd5b5051919050565b60808152600061063f60808301601d81527f646973747269627574652875696e743235362c75696e743235365b5d29000000602082015260400190565b60ff9590951660208301525060408101929092526001600160a01b03166060909101529056fea2646970667358221220b719a46d6d4a7a8cfc55caa79d9c733e8183d34ebc1d1797f48ffb022546e2cc64736f6c63430008130033",
    "linkReferences": {}
  },
  "methodIdentifiers": {
    "clientWalletAddress()": "ff782fec",
    "distribute(uint256,uint256[])": "e0a84f1a",
    "findJoker()": "5ba54919",
    "guessCards()": "01df8502",
    "joker()": "4dd2f3a2",
    "lucky()": "d9c291cf",
    "requestList(uint256)": "02e9d43b",
    "requestResult(uint256,uint256)": "a2c38c91",
    "teenPatti()": "cfdcfaaa",
    "teen_patti_1()": "15cd7069",
    "teen_patti_2()": "7789d499",
    "teen_patti_3()": "ca99a533"
  },
  "id": 14
}