{
  "abi": [
    {
      "inputs": [
        {
          "internalType": "address",
          "name": "supraSC",
          "type": "address"
        }
      ],
      "stateMutability": "nonpayable",
      "type": "constructor"
    },
    {
      "inputs": [
        {
          "internalType": "uint256",
          "name": "nonce",
          "type": "uint256"
        },
        {
          "internalType": "uint256[]",
          "name": "rngList",
          "type": "uint256[]"
        }
      ],
      "name": "distribute",
      "outputs": [],
      "stateMutability": "nonpayable",
      "type": "function"
    },
    {
      "inputs": [],
      "name": "distribute",
      "outputs": [],
      "stateMutability": "nonpayable",
      "type": "function"
    },
    {
      "inputs": [
        {
          "internalType": "uint256",
          "name": "_requestId",
          "type": "uint256"
        }
      ],
      "name": "flipResult",
      "outputs": [
        {
          "internalType": "uint256",
          "name": "",
          "type": "uint256"
        }
      ],
      "stateMutability": "view",
      "type": "function"
    }
  ],
  "bytecode": {
    "object": "0x60806040526002805460ff191660039081179091556001905534801561002457600080fd5b5060405161045a38038061045a83398101604081905261004391610068565b600080546001600160a01b0319166001600160a01b0392909216919091179055610098565b60006020828403121561007a57600080fd5b81516001600160a01b038116811461009157600080fd5b9392505050565b6103b3806100a76000396000f3fe608060405234801561001057600080fd5b50600436106100415760003560e01c806317a0456114610046578063e0a84f1a1461006b578063e4fc6b6d14610080575b600080fd5b610059610054366004610267565b610088565b60405190815260200160405180910390f35b61007e610079366004610280565b610108565b005b61007e6101b1565b600060025460ff1682106100d85760405162461bcd60e51b8152602060048201526012602482015271125b9d985b1a59081c995c5d595cdd081a5960721b60448201526064015b60405180910390fd5b6004546000908152600160209081526040808320858452909152812054610101906002906102ff565b9392505050565b82600454146101495760405162461bcd60e51b815260206004820152600d60248201526c496e76616c6964204e6f6e636560981b60448201526064016100cf565b60005b60025460ff90811690821610156101ab5782828260ff1681811061017257610172610321565b600087815260016020908152604080832060ff8816845282529091209102929092013590915550806101a381610337565b91505061014c565b50505050565b600054600254600354604051631dedfd4360e31b815260606004820152601d60648201527f646973747269627574652875696e743235362c75696e743235365b5d29000000608482015260ff909216602483015260448201526001600160a01b039091169063ef6fea189060a4016020604051808303816000875af115801561023e573d6000803e3d6000fd5b505050506040513d601f19601f820116820180604052508101906102629190610364565b600455565b60006020828403121561027957600080fd5b5035919050565b60008060006040848603121561029557600080fd5b83359250602084013567ffffffffffffffff808211156102b457600080fd5b818601915086601f8301126102c857600080fd5b8135818111156102d757600080fd5b8760208260051b85010111156102ec57600080fd5b6020830194508093505050509250925092565b60008261031c57634e487b7160e01b600052601260045260246000fd5b500690565b634e487b7160e01b600052603260045260246000fd5b600060ff821660ff810361035b57634e487b7160e01b600052601160045260246000fd5b60010192915050565b60006020828403121561037657600080fd5b505191905056fea2646970667358221220706fd25ea5ff79f48626f0910e289bbdb926bde5d9acb66d20015a89655c0fac64736f6c63430008130033",
    "linkReferences": {}
  },
  "methodIdentifiers": {
    "distribute()": "e4fc6b6d",
    "distribute(uint256,uint256[])": "e0a84f1a",
    "flipResult(uint256)": "17a04561"
  },
  "id": 10
}