{
  "abi": [
    {
      "inputs": [
        {
          "internalType": "address",
          "name": "supraSC",
          "type": "address"
        }
      ],
      "stateMutability": "nonpayable",
      "type": "constructor"
    },
    {
      "inputs": [
        {
          "internalType": "uint8",
          "name": "rngCount",
          "type": "uint8"
        },
        {
          "internalType": "string",
          "name": "username",
          "type": "string"
        }
      ],
      "name": "getRNGForUser",
      "outputs": [],
      "stateMutability": "nonpayable",
      "type": "function"
    },
    {
      "inputs": [
        {
          "internalType": "uint256",
          "name": "nonce",
          "type": "uint256"
        },
        {
          "internalType": "uint256[]",
          "name": "rngList",
          "type": "uint256[]"
        }
      ],
      "name": "myCallbackUsername",
      "outputs": [],
      "stateMutability": "nonpayable",
      "type": "function"
    },
    {
      "inputs": [
        {
          "internalType": "string",
          "name": "username",
          "type": "string"
        }
      ],
      "name": "viewUserName",
      "outputs": [
        {
          "internalType": "uint256[]",
          "name": "",
          "type": "uint256[]"
        }
      ],
      "stateMutability": "view",
      "type": "function"
    }
  ],
  "bytecode": {
    "object": "0x608060405234801561001057600080fd5b5060405161091138038061091183398101604081905261002f91610054565b600080546001600160a01b0319166001600160a01b0392909216919091179055610084565b60006020828403121561006657600080fd5b81516001600160a01b038116811461007d57600080fd5b9392505050565b61087e806100936000396000f3fe608060405234801561001057600080fd5b50600436106100415760003560e01c806322a5c69914610046578063a04cf4251461005b578063ba1ca6121461006e575b600080fd5b6100596100543660046103e3565b610097565b005b610059610069366004610505565b610230565b61008161007c36600461055b565b610313565b60405161008e9190610598565b60405180910390f35b6000546001600160a01b031633146101065760405162461bcd60e51b815260206004820152602860248201527f6f6e6c7920737570726120726f757465722063616e2063616c6c207468697320604482015267333ab731ba34b7b760c11b606482015260840160405180910390fd5b6000808267ffffffffffffffff81111561012257610122610462565b60405190808252806020026020018201604052801561014b578160200160208202803683370190505b509050806002600160008881526020019081526020016000206040516101719190610616565b90815260200160405180910390209080519060200190610192929190610383565b50600091505b60ff821683111561022957606484848460ff168181106101ba576101ba61068c565b905060200201356101cb91906106a2565b6000868152600160205260409081902090516002916101e991610616565b90815260200160405180910390208360ff168154811061020b5761020b61068c565b60009182526020909120015581610221816106c4565b925050610198565b5050505050565b60008054604051630750745160e31b815260806004820152602560848201527f6d7943616c6c6261636b557365726e616d652875696e743235362c75696e743260a48201526435365b5d2960d81b60c482015260ff8516602482015260016044820152607b60648201526001600160a01b0390911690633a83a2889060e4016020604051808303816000875af11580156102ce573d6000803e3d6000fd5b505050506040513d601f19601f820116820180604052508101906102f291906106f1565b600081815260016020526040902090915061030d8382610759565b50505050565b60606002826040516103259190610819565b908152604080519182900360209081018320805480830285018301909352828452919083018282801561037757602002820191906000526020600020905b815481526020019060010190808311610363575b50505050509050919050565b8280548282559060005260206000209081019282156103be579160200282015b828111156103be5782518255916020019190600101906103a3565b506103ca9291506103ce565b5090565b5b808211156103ca57600081556001016103cf565b6000806000604084860312156103f857600080fd5b83359250602084013567ffffffffffffffff8082111561041757600080fd5b818601915086601f83011261042b57600080fd5b81358181111561043a57600080fd5b8760208260051b850101111561044f57600080fd5b6020830194508093505050509250925092565b634e487b7160e01b600052604160045260246000fd5b600082601f83011261048957600080fd5b813567ffffffffffffffff808211156104a4576104a4610462565b604051601f8301601f19908116603f011681019082821181831017156104cc576104cc610462565b816040528381528660208588010111156104e557600080fd5b836020870160208301376000602085830101528094505050505092915050565b6000806040838503121561051857600080fd5b823560ff8116811461052957600080fd5b9150602083013567ffffffffffffffff81111561054557600080fd5b61055185828601610478565b9150509250929050565b60006020828403121561056d57600080fd5b813567ffffffffffffffff81111561058457600080fd5b61059084828501610478565b949350505050565b6020808252825182820181905260009190848201906040850190845b818110156105d0578351835292840192918401916001016105b4565b50909695505050505050565b600181811c908216806105f057607f821691505b60208210810361061057634e487b7160e01b600052602260045260246000fd5b50919050565b6000808354610624816105dc565b6001828116801561063c576001811461065157610680565b60ff1984168752821515830287019450610680565b8760005260208060002060005b858110156106775781548a82015290840190820161065e565b50505082870194505b50929695505050505050565b634e487b7160e01b600052603260045260246000fd5b6000826106bf57634e487b7160e01b600052601260045260246000fd5b500690565b600060ff821660ff81036106e857634e487b7160e01b600052601160045260246000fd5b60010192915050565b60006020828403121561070357600080fd5b5051919050565b601f82111561075457600081815260208120601f850160051c810160208610156107315750805b601f850160051c820191505b818110156107505782815560010161073d565b5050505b505050565b815167ffffffffffffffff81111561077357610773610462565b6107878161078184546105dc565b8461070a565b602080601f8311600181146107bc57600084156107a45750858301515b600019600386901b1c1916600185901b178555610750565b600085815260208120601f198616915b828110156107eb578886015182559484019460019091019084016107cc565b50858210156108095787850151600019600388901b60f8161c191681555b5050505050600190811b01905550565b6000825160005b8181101561083a5760208186018101518583015201610820565b50600092019182525091905056fea2646970667358221220a4585d087943edfc163777f1fbc8d8076176c8251f83e7afc13eae4c5e9414db64736f6c63430008130033",
    "linkReferences": {}
  },
  "methodIdentifiers": {
    "getRNGForUser(uint8,string)": "a04cf425",
    "myCallbackUsername(uint256,uint256[])": "22a5c699",
    "viewUserName(string)": "ba1ca612"
  },
  "id": 8
}