{
  "abi": [
    {
      "inputs": [],
      "stateMutability": "nonpayable",
      "type": "constructor"
    },
    {
      "inputs": [],
      "name": "createLottery",
      "outputs": [],
      "stateMutability": "nonpayable",
      "type": "function"
    },
    {
      "inputs": [],
      "name": "enter",
      "outputs": [],
      "stateMutability": "payable",
      "type": "function"
    },
    {
      "inputs": [],
      "name": "manager",
      "outputs": [
        {
          "internalType": "address",
          "name": "",
          "type": "address"
        }
      ],
      "stateMutability": "view",
      "type": "function"
    },
    {
      "inputs": [
        {
          "internalType": "uint256",
          "name": "_nonce",
          "type": "uint256"
        },
        {
          "internalType": "uint256[]",
          "name": "_rngList",
          "type": "uint256[]"
        }
      ],
      "name": "pickWinner",
      "outputs": [],
      "stateMutability": "nonpayable",
      "type": "function"
    },
    {
      "inputs": [
        {
          "internalType": "uint256",
          "name": "",
          "type": "uint256"
        }
      ],
      "name": "players",
      "outputs": [
        {
          "internalType": "address",
          "name": "",
          "type": "address"
        }
      ],
      "stateMutability": "view",
      "type": "function"
    },
    {
      "inputs": [
        {
          "internalType": "uint8",
          "name": "_rngCount",
          "type": "uint8"
        }
      ],
      "name": "requestRandomNumber",
      "outputs": [],
      "stateMutability": "nonpayable",
      "type": "function"
    },
    {
      "inputs": [],
      "name": "winner",
      "outputs": [
        {
          "internalType": "address",
          "name": "",
          "type": "address"
        }
      ],
      "stateMutability": "view",
      "type": "function"
    }
  ],
  "bytecode": {
    "object": "0x6080604052600380546001600160a01b03191673e88cfbebc6a453fbd340a7bd82611ad01c1f77ea17905534801561003657600080fd5b50600354600480546001600160a01b0319166001600160a01b039092169190911790556107f2806100686000396000f3fe6080604052600436106100705760003560e01c8063dfbf53ae1161004e578063dfbf53ae146100f3578063e97dcb6214610113578063ea660a241461011b578063f71d96cb1461013f57600080fd5b8063123e5e1e14610075578063481c6a7514610097578063ce912de1146100d3575b600080fd5b34801561008157600080fd5b5061009561009036600461061b565b61015f565b005b3480156100a357600080fd5b506000546100b7906001600160a01b031681565b6040516001600160a01b03909116815260200160405180910390f35b3480156100df57600080fd5b506100956100ee36600461065b565b610289565b3480156100ff57600080fd5b506002546100b7906001600160a01b031681565b6100956104d0565b34801561012757600080fd5b50610095600080546001600160a01b03191633179055565b34801561014b57600080fd5b506100b761015a366004610725565b610577565b6000546001600160a01b031633146101be5760405162461bcd60e51b815260206004820152601760248201527f43616c6c6572206973206e6f7420746865206f776e657200000000000000000060448201526064015b60405180910390fd5b6004805460ff60a01b198116600160a01b60ff85169081029182178455604051631dedfd4360e31b8152606094810194909452601e60648501527f7069636b57696e6e65722875696e743235362c2075696e743235365b5d29000060848501526024840152600160448401526001600160a01b039182169116179063ef6fea189060a4016020604051808303816000875af1158015610261573d6000803e3d6000fd5b505050506040513d601f19601f82011682018060405250810190610285919061073e565b5050565b6003546001600160a01b031633146102db5760405162461bcd60e51b815260206004820152601560248201527410d85b1b195c881a5cc81b9bdd08185b1b1bddd959605a1b60448201526064016101b5565b600454600160a01b900460ff166001036103b85760006001805490508260008151811061030a5761030a610757565b602002602001015161031c919061076d565b90506001818154811061033157610331610757565b600091825260209091200154600280546001600160a01b0319166001600160a01b03909216919091179055600180548290811061037057610370610757565b60009182526020822001546040516001600160a01b03909116914780156108fc02929091818181858888f193505050501580156103b1573d6000803e3d6000fd5b50506104ae565b60005b60045460ff600160a01b909104811690821610156104ac576000600180549050838360ff16815181106103f0576103f0610757565b6020026020010151610402919061076d565b90506001818154811061041757610417610757565b600091825260209091200154600280546001600160a01b0319166001600160a01b03909216919091179055600180548290811061045657610456610757565b60009182526020822001546040516001600160a01b03909116914780156108fc02929091818181858888f19350505050158015610497573d6000803e3d6000fd5b505080806104a49061078f565b9150506103bb565b505b60408051600081526020810191829052516104cb916001916105a1565b505050565b66038d7ea4c6800034116105345760405162461bcd60e51b815260206004820152602560248201527f56616c7565206d7573742062652067726561746572207468616e202e3030312060448201526432ba3432b960d91b60648201526084016101b5565b6001805480820182556000919091527fb10e2d527612073b26eecdfd717e6a320cf44b4afac2b0732d9fcbe2b7fa0cf60180546001600160a01b03191633179055565b6001818154811061058757600080fd5b6000918252602090912001546001600160a01b0316905081565b8280548282559060005260206000209081019282156105f6579160200282015b828111156105f657825182546001600160a01b0319166001600160a01b039091161782556020909201916001909101906105c1565b50610602929150610606565b5090565b5b808211156106025760008155600101610607565b60006020828403121561062d57600080fd5b813560ff8116811461063e57600080fd5b9392505050565b634e487b7160e01b600052604160045260246000fd5b6000806040838503121561066e57600080fd5b8235915060208084013567ffffffffffffffff8082111561068e57600080fd5b818601915086601f8301126106a257600080fd5b8135818111156106b4576106b4610645565b8060051b604051601f19603f830116810181811085821117156106d9576106d9610645565b6040529182528482019250838101850191898311156106f757600080fd5b938501935b82851015610715578435845293850193928501926106fc565b8096505050505050509250929050565b60006020828403121561073757600080fd5b5035919050565b60006020828403121561075057600080fd5b5051919050565b634e487b7160e01b600052603260045260246000fd5b60008261078a57634e487b7160e01b600052601260045260246000fd5b500690565b600060ff821660ff81036107b357634e487b7160e01b600052601160045260246000fd5b6001019291505056fea26469706673582212202ff4faa51c828ba7cff29d08c84f2c7e15a47241978b42518a4624d9ae97961564736f6c63430008130033",
    "linkReferences": {}
  },
  "methodIdentifiers": {
    "createLottery()": "ea660a24",
    "enter()": "e97dcb62",
    "manager()": "481c6a75",
    "pickWinner(uint256,uint256[])": "ce912de1",
    "players(uint256)": "f71d96cb",
    "requestRandomNumber(uint8)": "123e5e1e",
    "winner()": "dfbf53ae"
  },
  "id": 12
}