{
  "abi": [
    {
      "inputs": [
        {
          "internalType": "address",
          "name": "supraSC",
          "type": "address"
        }
      ],
      "stateMutability": "nonpayable",
      "type": "constructor"
    },
    {
      "inputs": [
        {
          "internalType": "uint8",
          "name": "rngCount",
          "type": "uint8"
        }
      ],
      "name": "flipCoin",
      "outputs": [],
      "stateMutability": "nonpayable",
      "type": "function"
    },
    {
      "inputs": [
        {
          "internalType": "uint256",
          "name": "_requestId",
          "type": "uint256"
        }
      ],
      "name": "flipResult",
      "outputs": [
        {
          "internalType": "bool",
          "name": "",
          "type": "bool"
        }
      ],
      "stateMutability": "view",
      "type": "function"
    },
    {
      "inputs": [
        {
          "internalType": "uint256",
          "name": "nonce",
          "type": "uint256"
        },
        {
          "internalType": "uint256[]",
          "name": "rngList",
          "type": "uint256[]"
        }
      ],
      "name": "myCallback",
      "outputs": [],
      "stateMutability": "nonpayable",
      "type": "function"
    }
  ],
  "bytecode": {
    "object": "0x608060405234801561001057600080fd5b5060405161041738038061041783398101604081905261002f91610054565b600080546001600160a01b0319166001600160a01b0392909216919091179055610084565b60006020828403121561006657600080fd5b81516001600160a01b038116811461007d57600080fd5b9392505050565b610384806100936000396000f3fe608060405234801561001057600080fd5b50600436106100415760003560e01c806317a04561146100465780635e7112cc1461006d5780636afa82ea14610082575b600080fd5b61005961005436600461023b565b610095565b604051901515815260200160405180910390f35b61008061007b366004610254565b610117565b005b6100806100903660046102d3565b61018b565b6000818152600160205260408120546100e75760405162461bcd60e51b815260206004820152600f60248201526e1a5b9d985b1a59081c995c5d595cdd608a1b60448201526064015b60405180910390fd5b600082815260016020526040902054610102906002906102fd565b1561010e576000610111565b60015b92915050565b600181146101585760405162461bcd60e51b815260206004820152600e60248201526d1a5b9d985b1a59081c995cdd5b1d60921b60448201526064016100de565b8181600081811061016b5761016b61031f565b600095865260016020908152604090962095029190910135909355505050565b60008054604051631dedfd4360e31b815260606004820152601d60648201527f6d7943616c6c6261636b2875696e743235362c75696e743235365b5d29000000608482015260ff8416602482015260448101929092526001600160a01b03169063ef6fea189060a4016020604051808303816000875af1158015610213573d6000803e3d6000fd5b505050506040513d601f19601f820116820180604052508101906102379190610335565b5050565b60006020828403121561024d57600080fd5b5035919050565b60008060006040848603121561026957600080fd5b83359250602084013567ffffffffffffffff8082111561028857600080fd5b818601915086601f83011261029c57600080fd5b8135818111156102ab57600080fd5b8760208260051b85010111156102c057600080fd5b6020830194508093505050509250925092565b6000602082840312156102e557600080fd5b813560ff811681146102f657600080fd5b9392505050565b60008261031a57634e487b7160e01b600052601260045260246000fd5b500690565b634e487b7160e01b600052603260045260246000fd5b60006020828403121561034757600080fd5b505191905056fea26469706673582212207547f9dcc33cca8a1fe47dfbedf8f0ab3dea36df0c6df1044c91ecc2a43cca4e64736f6c63430008130033",
    "linkReferences": {}
  },
  "methodIdentifiers": {
    "flipCoin(uint8)": "6afa82ea",
    "flipResult(uint256)": "17a04561",
    "myCallback(uint256,uint256[])": "5e7112cc"
  },
  "id": 11
}